{
  "_format": "hh-sol-artifact-1",
  "contractName": "MerkleAirdrop",
  "sourceName": "contracts/MerkleAirdrop.sol",
  "abi": [
    {
      "inputs": [
        {
          "internalType": "address",
          "name": "_tokenAddress",
          "type": "address"
        },
        {
          "internalType": "bytes32",
          "name": "_merkleRoot",
          "type": "bytes32"
        }
      ],
      "stateMutability": "nonpayable",
      "type": "constructor"
    },
    {
      "inputs": [],
      "name": "AIRDROP_CLAIMED",
      "type": "error"
    },
    {
      "inputs": [],
      "name": "INVALID_PRO0F",
      "type": "error"
    },
    {
      "inputs": [],
      "name": "TRANSFER_FAILED",
      "type": "error"
    },
    {
      "inputs": [],
      "name": "UNAUTHORIZED",
      "type": "error"
    },
    {
      "inputs": [],
      "name": "WITHDRAWAL_FAILED",
      "type": "error"
    },
    {
      "anonymous": false,
      "inputs": [
        {
          "indexed": true,
          "internalType": "address",
          "name": "claimant",
          "type": "address"
        },
        {
          "indexed": false,
          "internalType": "uint256",
          "name": "amount",
          "type": "uint256"
        }
      ],
      "name": "Claimed",
      "type": "event"
    },
    {
      "anonymous": false,
      "inputs": [
        {
          "indexed": true,
          "internalType": "bytes32",
          "name": "oldRoot",
          "type": "bytes32"
        },
        {
          "indexed": true,
          "internalType": "bytes32",
          "name": "newRoot",
          "type": "bytes32"
        }
      ],
      "name": "MerkleRootUpdated",
      "type": "event"
    },
    {
      "anonymous": false,
      "inputs": [
        {
          "indexed": false,
          "internalType": "uint256",
          "name": "amount",
          "type": "uint256"
        }
      ],
      "name": "Withdrawn",
      "type": "event"
    },
    {
      "inputs": [
        {
          "internalType": "uint256",
          "name": "amount",
          "type": "uint256"
        },
        {
          "internalType": "bytes32[]",
          "name": "merkleProof",
          "type": "bytes32[]"
        }
      ],
      "name": "claim",
      "outputs": [],
      "stateMutability": "nonpayable",
      "type": "function"
    },
    {
      "inputs": [
        {
          "internalType": "address",
          "name": "",
          "type": "address"
        }
      ],
      "name": "claimed",
      "outputs": [
        {
          "internalType": "bool",
          "name": "",
          "type": "bool"
        }
      ],
      "stateMutability": "view",
      "type": "function"
    },
    {
      "inputs": [
        {
          "internalType": "bytes32",
          "name": "newRoot",
          "type": "bytes32"
        }
      ],
      "name": "updateMerkleRoot",
      "outputs": [],
      "stateMutability": "nonpayable",
      "type": "function"
    },
    {
      "inputs": [],
      "name": "withdrawRemainingTokens",
      "outputs": [],
      "stateMutability": "nonpayable",
      "type": "function"
    }
  ],
  "bytecode": "0x60a060405234801561001057600080fd5b50604051610c6e380380610c6e8339818101604052810190610032919061014d565b8173ffffffffffffffffffffffffffffffffffffffff1660808173ffffffffffffffffffffffffffffffffffffffff168152505080600181905550336000806101000a81548173ffffffffffffffffffffffffffffffffffffffff021916908373ffffffffffffffffffffffffffffffffffffffff160217905550505061018d565b600080fd5b600073ffffffffffffffffffffffffffffffffffffffff82169050919050565b60006100e4826100b9565b9050919050565b6100f4816100d9565b81146100ff57600080fd5b50565b600081519050610111816100eb565b92915050565b6000819050919050565b61012a81610117565b811461013557600080fd5b50565b60008151905061014781610121565b92915050565b60008060408385031215610164576101636100b4565b5b600061017285828601610102565b925050602061018385828601610138565b9150509250929050565b608051610ab86101b660003960008181610238015281816103ba01526104560152610ab86000f3fe608060405234801561001057600080fd5b506004361061004c5760003560e01c80632f52ebb7146100515780634783f0ef1461006d5780638afbf66914610089578063c884ef8314610093575b600080fd5b61006b6004803603810190610066919061077b565b6100c3565b005b61008760048036038101906100829190610811565b61035e565b005b6100916103ae565b005b6100ad60048036038101906100a8919061089c565b610582565b6040516100ba91906108e4565b60405180910390f35b600260003373ffffffffffffffffffffffffffffffffffffffff1673ffffffffffffffffffffffffffffffffffffffff16815260200190815260200160002060009054906101000a900460ff1615610147576040517f3321898800000000000000000000000000000000000000000000000000000000815260040160405180910390fd5b6000338460405160200161015c92919061091d565b604051602081830303815290604052805190602001206040516020016101829190610967565b6040516020818303038152906040528051906020012090506101a88383600154846105a2565b6101de576040517faa1497cd00000000000000000000000000000000000000000000000000000000815260040160405180910390fd5b6001600260003373ffffffffffffffffffffffffffffffffffffffff1673ffffffffffffffffffffffffffffffffffffffff16815260200190815260200160002060006101000a81548160ff0219169083151502179055507f000000000000000000000000000000000000000000000000000000000000000073ffffffffffffffffffffffffffffffffffffffff1663a9059cbb33866040518363ffffffff1660e01b815260040161029192919061091d565b6020604051808303816000875af11580156102b0573d6000803e3d6000fd5b505050506040513d601f19601f820116820180604052508101906102d491906109ae565b61030a576040517f3f4ab80e00000000000000000000000000000000000000000000000000000000815260040160405180910390fd5b3373ffffffffffffffffffffffffffffffffffffffff167fd8138f8a3f377c5259ca548e70e4c2de94f129f5a11036a15b69513cba2b426a8560405161035091906109db565b60405180910390a250505050565b6103666105bb565b6000600154905080821461037c57816001819055505b81817ffd69edeceaf1d6832d935be1fba54ca93bf17e71520c6c9ffc08d6e9529f875760405160405180910390a35050565b6103b66105bb565b60007f000000000000000000000000000000000000000000000000000000000000000073ffffffffffffffffffffffffffffffffffffffff166370a08231306040518263ffffffff1660e01b815260040161041191906109f6565b602060405180830381865afa15801561042e573d6000803e3d6000fd5b505050506040513d601f19601f820116820180604052508101906104529190610a26565b90507f000000000000000000000000000000000000000000000000000000000000000073ffffffffffffffffffffffffffffffffffffffff1663a9059cbb60008054906101000a900473ffffffffffffffffffffffffffffffffffffffff16836040518363ffffffff1660e01b81526004016104cf92919061091d565b6020604051808303816000875af11580156104ee573d6000803e3d6000fd5b505050506040513d601f19601f8201168201806040525081019061051291906109ae565b610548576040517ffbefd20100000000000000000000000000000000000000000000000000000000815260040160405180910390fd5b7f430648de173157e069201c943adb2d4e340e7cf5b27b1b09c9cb852f03d63b568160405161057791906109db565b60405180910390a150565b60026020528060005260406000206000915054906101000a900460ff1681565b6000826105b0868685610642565b149050949350505050565b60008054906101000a900473ffffffffffffffffffffffffffffffffffffffff1673ffffffffffffffffffffffffffffffffffffffff163373ffffffffffffffffffffffffffffffffffffffff1614610640576040517f075fd2b100000000000000000000000000000000000000000000000000000000815260040160405180910390fd5b565b60008082905060005b85859050811015610688576106798287878481811061066d5761066c610a53565b5b90506020020135610694565b9150808060010191505061064b565b50809150509392505050565b60008183106106ac576106a782846106bf565b6106b7565b6106b683836106bf565b5b905092915050565b600082600052816020526040600020905092915050565b600080fd5b600080fd5b6000819050919050565b6106f3816106e0565b81146106fe57600080fd5b50565b600081359050610710816106ea565b92915050565b600080fd5b600080fd5b600080fd5b60008083601f84011261073b5761073a610716565b5b8235905067ffffffffffffffff8111156107585761075761071b565b5b60208301915083602082028301111561077457610773610720565b5b9250929050565b600080600060408486031215610794576107936106d6565b5b60006107a286828701610701565b935050602084013567ffffffffffffffff8111156107c3576107c26106db565b5b6107cf86828701610725565b92509250509250925092565b6000819050919050565b6107ee816107db565b81146107f957600080fd5b50565b60008135905061080b816107e5565b92915050565b600060208284031215610827576108266106d6565b5b6000610835848285016107fc565b91505092915050565b600073ffffffffffffffffffffffffffffffffffffffff82169050919050565b60006108698261083e565b9050919050565b6108798161085e565b811461088457600080fd5b50565b60008135905061089681610870565b92915050565b6000602082840312156108b2576108b16106d6565b5b60006108c084828501610887565b91505092915050565b60008115159050919050565b6108de816108c9565b82525050565b60006020820190506108f960008301846108d5565b92915050565b6109088161085e565b82525050565b610917816106e0565b82525050565b600060408201905061093260008301856108ff565b61093f602083018461090e565b9392505050565b6000819050919050565b61096161095c826107db565b610946565b82525050565b60006109738284610950565b60208201915081905092915050565b61098b816108c9565b811461099657600080fd5b50565b6000815190506109a881610982565b92915050565b6000602082840312156109c4576109c36106d6565b5b60006109d284828501610999565b91505092915050565b60006020820190506109f0600083018461090e565b92915050565b6000602082019050610a0b60008301846108ff565b92915050565b600081519050610a20816106ea565b92915050565b600060208284031215610a3c57610a3b6106d6565b5b6000610a4a84828501610a11565b91505092915050565b7f4e487b7100000000000000000000000000000000000000000000000000000000600052603260045260246000fdfea26469706673582212205bcca5dfa89c555e78d2e82428855e3b4471626a1cdf08e9faafe096c6e7f41964736f6c634300081a0033",
  "linkReferences": {},
  "deployedLinkReferences": {}
}